:020000040000FA
:0600000085EF00F0120084
:0A0006000100280100006A0000005C
:0400100002000000EA
:0C001400060EF66E000EF76E000EF86E81
:1000200000010900F550656F0900F550666F03E1A6
:10003000656701D03DD00900F550606F0900F550AB
:10004000616F0900F550626F09000900F550E96E13
:100050000900F550EA6E090009000900F550636FC8
:100060000900F550646F09000900F6CF67F0F7CF7B
:1000700068F0F8CF69F060C0F6FF61C0F7FF62C0BA
:10008000F8FF0001635302E1645307E00900F550F3
:10009000EE6E6307F8E26407F9D767C0F6FF68C041
:1000A000F7FF69C0F8FF00016507000E665BBFD768
:0200B00012003C
:0E00B200070ED56E6AC0D7FF6BC0D6FFD58E85
:1000C000F29412000F0EC16E956A550E836E1200E7
:1000D000F9DFEFDFF2A407D08C1C836E6AC0D7FF74
:0A00E0006BC0D6FFF294F6D71200B1
:0600EA00000EF36E00EEB3
:1000F00000F0080E01D81200EA6002D0EE6AFCD7C8
:0A010000F350E9601200EE6AFCD72C
:06010A0013EE00F023EEED
:1001100000F0F86A019C0AEC00F093EC00F068EC47
:0601200000F0FBD7120005
:020126001200C5
:02012800FDE9EF
:020000040030CA
:0100000000FF
:010001000CF2
:010002000EEF
:010003001EDE
:010005008179
:010006008178
:00000001FF
