:020000001028C6
:10000800FE00030EF1000408F2000A08F300831250
:1000180003137F08F400C6281128F901FA014121C9
:10002800FB004221FC008301642800308A00040898
:10003800840A8207003454347534203463347534A8
:100048006A346F3420346E346F346D346534203440
:10005800E93420344A3465346F347634E1342C344E
:10006800203473346F346D3465346E3474346534CD
:100078002034543475342034E934733420346F34E4
:10008800203441346C3474346934733473346934CF
:100098006D346F34203473346F34623472346534A1
:1000A800203474346F34643461342034613420343F
:1000B800743465347234723461342E340A34003442
:1000C8000730F8007808831203139F04E1208C207E
:1000D8000821162183120313861986281430F50087
:1000E8000030F600A92031210130F820C830F50091
:1000F8000030F600A9203921C830F5000030F6009C
:10010800A9202921C830F5000030F600A9206E2862
:10011800831603138E15FD30F5007508831203133B
:100128009005FE30F50075088C05831603130C1432
:100138007B08831203138F007C088E003430F5008F
:10014800750890048B170B170800831203131014FB
:100158007B088F007C088E00F901FA0110147608DC
:100168007A02031DB92875087902031CB328FE30EA
:10017800F7007708831203139005FE30F70077081D
:100188008C0508000C1CD628FE30F00070088C0581
:100198007B088F007C088E000130F9070318FA0AE3
:1001A8000030FA077408FF0073088A007208840098
:1001B800710E8300FE0E7E0E09001930831603139C
:1001C80099002430F50075089804AF30F5007508DB
:1001D8009805B730F5007508831203139805903019
:1001E800F500750898040800F700770884001920BE
:1001F80000380319080077088400192021210130EC
:10020800F6007608F707F9287C30F500750883169C
:10021800031385057D30F5007508831203138505E2
:10022800051408007F30F50075088316031381054F
:1002380086158312031386150800F500831203132D
:100248000C1E22297508990008007D30F5007508F4
:10025800831203138505051408007E30F500750820
:1002680083120313850585140800FC30F500750812
:0E02780083120313850585170800FF348334B5
:02400E0070FF41
:00000001FF
