:02000000FE2FD1
:100ED000F000831203130C1E692F7008990008009C
:100EE0001930831603139900181518121813981641
:100EF0008312031398111813981718160800F0009E
:100F00008312031383167008831603139B001C14AB
:100F1000831203138312831603131A080800F100C7
:100F20007008831603139A0071089B008312031341
:100F30008316831603131C158B1355309D00AA309E
:100F40009D009C149C18A22F1C118B170800702761
:100F50005930F2007208F00001308F276530F2003E
:100F60007208F00002308F277330F2007208F00030
:100F700003308F276830F2007208F00004308F27AA
:100F80007530F2007208F00005308F276130F200F2
:100F90007208F00006308F272130F2007208F0004E
:100FA00007308F270A30F2007208F00008308F27D0
:100FB00001307F27682702307F27682703307F278B
:100FC000682704307F27682705307F276827063089
:100FD0007F27682707307F27682708307F27682703
:100FE0000B30F4002630F3006630F200F20BF62FDF
:100FF000F30BF62FF40BF62FFD2FD82F8301A72F1D
:02400E0070FF41
:00000001FF
