:020000001028C6
:10000800FE00030EF1000408F2000A08F300831250
:1000180003137F08F400322811285B20F7005C20C6
:10002800F80083014B28831603138E15FD30F50065
:100038007508831203139005101590161016FE30DC
:10004800F50075088C05831603130C1477088312C2
:1000580003138F0078088E00101408000C1C402829
:10006800FE30F00070088C0577088F0078088E0045
:100078000130F000700885067408FF0073088A00D4
:1000880072088400710E8300FE0E7E0E0900073090
:10009800831203139F00FE30F600760883160313BD
:1000A80085055820172057288B170B170800F6349A
:0200B8003C34D6
:02400E0070FF41
:00000001FF
