:020000001028C6
:10000800FE00030EF0000408F1000A08F200831253
:1000180003137F08F3001328112883013A288B1C47
:1000280022280310861C0314031C1E2883120313A2
:10003800861421288312031386108B107308FF007F
:1000480072088A0071088400700E8300FE0E7E0E0E
:10005800090083160313811306148312031306146D
:100068000B168316031301138B10080040202D2054
:0C0078008316031386103F288B17080026
:02400E0070FF41
:00000001FF
