:020000001028C6
:10000800FE00030EF1000408F2000A08F300831250
:1000180003137F08F400F1281128F8018301CA2886
:10002800F730F70077088312031386052A30A520D6
:100038004B30A520C230A520C230A520C230A52053
:10004800C230A520831203138615F730F70077080E
:1000580086053030A5204B30A520C230A520C230FF
:10006800A520C230A520C230A5208312031386150F
:10007800F730F700770886052130A5200130A52044
:10008800831203138615F730F700770886052230A8
:10009800A5200130A520831203138615F730F70039
:1000A800770886052330A5200330A5208312031383
:1000B8008615F730F700770886052430A52000302C
:1000C800A520831203138615F730F70077088605F5
:1000D8000530A5206B30A520831203138615F73051
:1000E800F700770886052630A5202630A52083123C
:1000F80003138615F730F700770886052730A52003
:100108007030A520831203138615F730F70077089F
:1001180086053130A5200A30A520831203138615E1
:10012800F730F700770886052030A5200F30A52086
:1001380083120313861586160330F700F70BA228DF
:10014800080083120313A100A001A20108302202B3
:1001580003180800A11FB2280615B628FB30F500C1
:10016800750886052108F5007507F6007608A100D0
:100178000310A00D0617861B2014BF30F500750864
:1001880086050130F5007508A207AA2807308312F2
:100198000313A30023089F04DE201420FD308312DC
:1001A8000313A3002308831603138505831203137F
:1001B8008514DD289330F50075088316031386052A
:1001C8008130F5007508860483120313061486151A
:1001D800DF30F5007508860508008B1CF728FD3010
:1001E800F00070088B057408FF0073088A00720815
:0C01F8008400710E8300FE0E7E0E0900D4
:02400E0070FF41
:00000001FF
