:08000000803102288731F32F43
:100F3E000134F6002000111EA12F760823009A001E
:100F4E000800C53023009B001E139E161E121E1590
:100F5E009D171D131D169D110800F230F600760820
:100F6E00210099041F30F600760898041A1A08001A
:100F7E00BD2F770884007808850000080038031913
:100F8E000800770884007808850000088731A027BC
:100F9E0087310130F7070030F83DC02F8731B42775
:100FAE0087318731A82787310030F7008830F80065
:100FBE008731C02787310F30FB003530FA005E30A5
:100FCE00F900F90BE82FFA0BE82FFB0BE82F013095
:100FDE00F9007908FC07DB2FF001F101F201F301B2
:100FEE00F401F50187319F27FC007E102000873128
:100FFE00D52F203465346E34763469346F347334BF
:04100E000A3400346C
:020000040001F9
:04000E00C4FFFFDD4F
:00000001FF
