:02000000FC2FD3
:100F5A00B127BD27CB27AF2F831603138611831220
:100F6A0003139715171597101710FF3095000800EF
:100F7A00831603138E15831203139214FF308316FC
:100F8A000313920083120313121508000030710232
:100F9A00FF30031970020318F72F70088312031326
:100FAA0095000730F3007D30F200F20BDA2FF30BD5
:100FBA00DA2F0130F0070318F10A0030F107CB2FBE
:100FCA0070088312031395000730F3007D30F20096
:100FDA00F20BED2FF30BED2F0130F0020030031C62
:100FEA00F103F1027108700403190800E52FF001FA
:060FFA00F1018301AD2F9F
:02400E0070FF41
:00000001FF
