:020000001028C6
:10000800FE00030EF0000408F1000A08F200831253
:1000180003137F08F30013281128830139280B1CC8
:1000280022280310061C0314031C1E288312031322
:10003800061421288312031306100B107308FF00FF
:1000480072088A0071088400700E8300FE0E7E0E0E
:100058000900831603138616831203138616831664
:10006800031381138B150B10080083160313061056
:100078008312031306102D20422041288B170800F5
:02400E0070FF41
:00000001FF
