:04000000CCEF3FF012
:107F98000001E0EF3FF007D0030E036E980EE82EC5
:107FA800FED7032EFCD70106D8A002060128D8B4B4
:107FB8000228D8B41200F0D7000E926E000E936E0D
:107FC800000E946E000E956E000E966E000E806E7A
:107FD800000E816E000E826E000E836E000E846E9F
:107FE800891E8A1E8B1E8C1E8D1E010E026EF40EBB
:087FF800016ECFEC3FF0F4D75D
:020000040020DA
:08000000FFFFFFFFFFFFFFFF00
:020000040030CA
:0E000000000C1F1EFF8385FF0FC00FE00F4096
:00000001FF
