:10000000FE2F00308A000408840A8207003454342A
:1000100065347334743461346E3464346F34203432
:100020006134203455345334413452345434203400
:100030006E346F34203450344934433431343634E0
:10004000463436343234383441342E340A340034B1
:100F8800F000831203130C1EC52F70089900080087
:100F98001930831603139900181398161812181588
:100FA8008312031398171813181698110800F200E3
:100FB80072088400012000380319080072088400B0
:100FC8000120C4270130F1007108F207DC2FCC277B
:100FD8008B170B170130DB270330F5008A30F4003C
:100FE8005630F300F30BF62FF40BF62FF50BF62F14
:080FF800FD2FEE2F8301EB2F0A
:02400E0070FF41
:00000001FF
