:040000000CEF00F011
:10000800FACF02F0FBCF03F0E9CF04F00EED00F0D9
:1000180089EF00F00600EACF05F0E1CF06F0E2CF65
:1000280007F0D9CF08F0DACF09F0F3CF0AF0F4CF10
:100038000BF0F6CF0CF0F7CF0DF0F8CF0EF0F5CFB0
:100048000FF0F2A428D0000E8CB0010EFF0A016E4A
:1000580083500118FE0B0118836E030E016E980E73
:10006800E82EFED7012EFCD7000E8CB0010EFF0A39
:10007800016E83500118FE0B0118836E000E8CB2BE
:10008800010EFF0A016E014683500118FD0B01188D
:10009800836E85EC00F00FC0F5FF0EC0F8FF0DC0B1
:1000A800F7FF0CC0F6FF0BC0F4FF0AC0F3FF09C04E
:1000B800DAFF08C0D9FF07C0E2FF06C0E1FF05C0AC
:1000C800EAFF04C0E9FF03C0FBFF02C0FAFF11000A
:1000D8007AEC00F073EC00F08CEC00F0FFD7070E20
:1000E800D56E81EC00F0D58EF28A12000F0EC16E2B
:1000F800000E956E000E836E1200F294000ED66EFE
:100108001200F294000ED66E120000016CEF00F09F
:06011800D09EF28E1200E1
:020000040020DA
:08000000FFFFFFFFFFFFFFFF00
:020000040030CA
:0E000000000C0E1EFF8181FF0FC00FE00F40AD
:00000001FF
