:020000001028C6
:10000800FE00030EF0000408F1000A08F200831253
:1000180003137F08F300152811284220F4008301F8
:100028003A280B1D21280B11740881000310061CA7
:10003800031400300318013086007308FF007208AB
:100048008A0071088400700E8300FE0E7E0E09007F
:10005800740883120313810083160313811281111C
:100068000115811401148B160B1108008316031354
:0E00780006102C2040203F288B170800B234C1
:02400E0070FF41
:00000001FF
