:020000040000FA
:060000008BEF00F012007E
:020006000000F8
:0600080056EF00F01200AB
:02000E00060EDC
:10001000F66E000EF76E000EF86E00010900F55046
:10002000656F0900F550666F03E1656701D03DD04B
:100030000900F550606F0900F550616F0900F55037
:10004000626F09000900F550E96E0900F550EA6E8B
:10005000090009000900F550636F0900F550646F4D
:1000600009000900F6CF67F0F7CF68F0F8CF69F024
:1000700060C0F6FF61C0F7FF62C0F8FF0001635384
:1000800002E1645307E00900F550EE6E6307F8E201
:100090006407F9D767C0F6FF68C0F7FF69C0F8FFCB
:0C00A00000016507000E665BBFD7120070
:0400AC00DACFE4FFC4
:1000B000E2CFDAFFE6529EA203D08C1C836E9E92A2
:1000C000E552E5CFDAFF1100D09EF28EF28CCA84A1
:1000D00012007B0ECA6E320ECB6E9D829E92120073
:1000E0000F0EC16E956A150E836E1200F9DFF1DFF7
:0600F000EBDFFFD7120058
:0A00F600000EF36E00EE00F0080E9D
:1001000001D81200EA6002D0EE6AFCD7F350E96031
:060110001200EE6AFCD7AC
:0A01160013EE00F023EE00F0F86A8B
:10012000019C07EC00F099EC00F076EC00F0FBD7B6
:020130001200BB
:020132001200B9
:020000040030CA
:0100000000FF
:010001000CF2
:010002000EEF
:010003001EDE
:010005008179
:010006008178
:00000001FF
