:0400000050EF00F0CD
:10000800FACF01F0FBCF02F0E9CF03F0EACF04F01A
:10001800E1CF05F0E2CF06F0D9CF07F0DACF08F04C
:10002800F3CF09F0F4CF0AF0F6CF0BF0F7CF0CF0CE
:10003800F8CF0DF0F5CF0EF0F2A411D08C0E0F5CB6
:100048007A0E1058D8A006D0FF0E811A000E106E36
:10005800000E0F6E000ED66EF2940F4A102A0EC0D4
:10006800F5FF0DC0F8FF0CC0F7FF0BC0F6FF0AC084
:10007800F4FF09C0F3FF08C0DAFF07C0D9FF06C0C4
:10008800E2FF05C0E1FF04C0EAFF03C0E9FF02C0C8
:10009800FBFF01C0FAFF110052EF00F0140EF66EDC
:1000A800010EF76E000EF86E0900F5CF0FF009008B
:1000B800F5CF10F0000170EF00F0400E9B16000E17
:1000C800926E000E806E000E816E000E826E000E23
:1000D800836E000E846E120061EC00F086EC00F076
:1000E80080EC00F079EC00F0FFD7D58CD00ED51657
:1000F800000ED66ED58E1200D08EE00EF212F2945B
:0E010800F1841200000E936E81681200010057
:020000040020DA
:08000000FFFFFFFFFFFFFFFF00
:020000040030CA
:0E000000FF321E3CFFBD85FF0FC00FE00F401A
:00000001FF
