:020000001028C6
:10000800FE00030EF0000408F1000A08F200831253
:1000180003137F08F300172811284E20F4004F20FF
:10002800F500830145280C1C25280C1074088F0046
:1000380075088E000310061C0314003003180130E5
:1000480086007308FF0072088A0071088400700E29
:100058008300FE0E7E0E0900831603138E1583128D
:10006800031390101015901610160C108316031316
:100078000C147408831203138F0075088E00101473
:1000880008008316031306104B2030204A288B17CC
:080098000B170800D834F03406
:02400E0070FF41
:00000001FF
