:020000040000FA
:06000000D3EF00F0120036
:020006001200E6
:060008005DEF00F01200A4
:02000E000100EF
:0C001000C20100006A00000001000000B6
:04001C000E0EF66E60
:10002000000EF76E000EF86E00010900F550656FC6
:100030000900F550666F03E1656701D03DD0090006
:10004000F550606F0900F550616F0900F550626F5F
:1000500009000900F550E96E0900F550EA6E090043
:1000600009000900F550636F0900F550646F09003D
:100070000900F6CF67F0F7CF68F0F8CF69F060C0FD
:10008000F6FF61C0F7FF62C0F8FF0001635302E1B1
:10009000645307E00900F550EE6E6307F8E2640769
:1000A000F9D767C0F6FF68C0F7FF69C0F8FF000125
:0A00B0006507000E665BBFD7120063
:0600BA00DACFE4FFE2CF03
:1000C000DAFFE6528C1C836E9E926AC0CBFFE5522B
:1000D000E5CFDAFF1100D09EF28EF28CCA841200B6
:1000E0007B0ECA6E6AC0CBFF9E929D8212000F0EDD
:1000F000C16E030E936E816A946A826A956A836AFE
:1001000012008150010B0DE1130E00016A5D09E23E
:10011000828000016A2B1E0EE66EACEC00F0E55208
:1001200001D0829012008150020B0DE100016A5152
:10013000020809E2828200016A071E0EE66EACEC3C
:1001400000F0E55201D082921200D1DFC9DFC3DF97
:08015000D8DFE9DFFDD7120042
:08015800FF0EE350036EEF0EF1
:1001600001D0F30EE76EE72EB3EF00F00C0E026E37
:10017000E76AE72EB9EF00F0022EB8EF00F0032E89
:06018000B1EF00F01200D7
:0A018600000EF36E00EE00F0080E0C
:1001900001D81200EA6002D0EE6AFCD7F350E960A1
:0601A0001200EE6AFCD71C
:0A01A60013EE00F023EE00F0F86AFB
:1001B000019C0EEC00F003EC00F0A5EC00F0FBD786
:0201C00012002B
:0101C200023A
:020000040030CA
:0100000000FF
:010001000CF2
:010002000EEF
:010003001EDE
:010005008179
:010006008178
:00000001FF
