:0400000029EF04F0F0
:1008000000C2F70021EC04F0F2A4FED78AA002D0C7
:10081000010E01D0000EFF0A016E81500118FE0B7F
:100820000118816E15EC04F0EFD7F294010EF66E0C
:100830000800F5CFD7FF020EF66E0800F5CFD6FF01
:1008400012000F0EC16E35EC04F030EC04F0D58EC2
:100850001200000EF86E080EF76E000102EF04F0B1
:10086000040ED56E15EC04F01200000E936E000E0F
:04087000816E120083
:020000040020DA
:08000000FFFFFFFFFFFFFFFF00
:020000040030CA
:0E000000000C0E1EFF8181FF0FC00FE00F40AD
:00000001FF
